:02000000722D5F
:0E000600213083120313FD00FD0B07280800B4
:06001400000000000800DE
:10001A000F3083120313FC004730FD00FD0B132839
:0A002A00FC0B132800000000080082
:10003400063083120313FD00FD0B1E280000080088
:1000440083120313D11B2828881129288815511BD2
:100054002D2808112E280815D11A32288810332883
:100064008814511A372808103828081423183C28F3
:1000740008163D28081288160A208812D119442827
:100084008811452888155119492808114A28081546
:10009400D1184E2888104F28881451185328081056
:1000A40054280814231858280816592808128816A2
:1000B4000A208812231C60280D20612803200800D0
:1000C40083120313D101D301D4011030D5000430BD
:1000D400540203188E28F0308500550983168500D4
:1000E4000A200A200F3083120505F0007008D200A0
:1000F4007008031988285308D10052080319862868
:10010400D20CD213D10A7F280430D400D50D551057
:0E0114000430D307D40A69285108F00008000F
:1001220083120313F801F9011030FC00710DF80D70
:10013200F90D7408F8027508031C750FF90203180B
:10014200A9287408F80775080318750FF907031032
:0A015200F00DF10DFC0B97280800DA
:10015C0083120313CF0105304F020318BC284F083C
:10016C004E07840020308000CF0AB1284F084E077C
:10017C0084008001CF034F084E07D0000A30F400F2
:10018C00F5014C08F0004D08F10091207808F000C2
:10019C007908F1003030F0075008840070088000B6
:1001AC000A30F400F5014C08F0004D08F1009120E4
:1001BC007008CC007108CD0000307106031DE828D2
:1001CC0000307006031DEB28ED28CF03C128080072
:1001DC008312031323104C08D1002220231408008F
:1001EC0062207008CC000F300505F00003190029BF
:0A01FC001A20F9284C08F000080052
:0E0206008312031322088A00210882000800D8
:1002140083120313F3017308243EF20073084307A7
:10022400F00044080318013EF1007008A1007108B1
:10023400A20003218A110A12F000720884007008D7
:10024400800072088400000803192A29F30A0D2982
:060254002430F000080058
:10025A0083120313C801C9014308CA004408CB002A
:10026A0080304406F00080307002031D3E290030C1
:10027A00430203184C290130C8000030C900430862
:10028A00003CCA004408031C013ECB01CB024A08C9
:10029A00CC004B08CD004508CE00AE200630C60083
:1002AA000030C7004708003C031D5D294608003C92
:1002BA000318782946084507F20001304602F00083
:1002CA000030031C013E4702F10070084507840014
:1002DA000008F00072088400700880000130C6022D
:1002EA00031CC703572945088400203080004808AA
:1002FA00490403199629C601C7014608450784001F
:10030A000008203A031D8D29C60A0319C70A822943
:10031A000130C602031CC7034608450784002D3076
:04032A008000080047
:10032E0083120313C301C4018316890101308700B0
:10033E0086018312860183168801831288018E013D
:10034E008F014E30FC00EB30FD00FD0BAC29FC0B99
:10035E00AC29033090000B30FB002630FC005D30E2
:10036E00FD00FD0BB829FC0BB829FB0BB8290000CA
:10037E000000023090000E08C300C4010F08F10007
:10038E00F0014308F00744080318013EF10703305B
:10039E00F4000030F5009120F00A0319F10A08006C
:1003AE0083120313A0012008031DE929F62070080B
:1003BE00A0004E30FC00EB30FD00FD0BE429FC0BE1
:0C03CE00E429DA292008F000F101080001
:1003DA0083160313860183128601F1011430710218
:1003EA000318212A033086004E30FC00EB30FD0052
:1003FA00FD0BFD29FC0BFD29063086004E30FC0062
:10040A00EB30FD00FD0B072AFC0B072A0C30860097
:10041A004E30FC00EB30FD00FD0B112AFC0B112ABB
:10042A00093086004E30FC00EB30FD00FD0B1B2A24
:0A043A00FC0B1B2AF10AF32908004D
:1004440083160313860183128601F10114307102AD
:100454000318562A093086004E30FC00EB30FD00AC
:10046400FD0B322AFC0B322A0C3086004E30FC0085
:10047400EB30FD00FD0B3C2AFC0B3C2A06308600C9
:100484004E30FC00EB30FD00FD0B462AFC0B462AE7
:10049400033086004E30FC00EB30FD00FD0B502A8B
:0A04A400FC0B502AF10A282A080078
:1004AE00692A803083120313C3007C2AC030C30034
:1004BE007C2A9430C3007C2AD430C3007C2A80303E
:1004CE00C3007C2A831203134308013A0319582AE6
:1004DE004308023A03195D2A4308033A0319602AB6
:1004EE004308043A0319632A662A4403F0004308BA
:1004FE00F0077008C3007008D10022202310C60137
:10050E0046084507840000080319952A4608450742
:10051E0084000008CC00EE20C60A872A23140800A7
:10052E0083120313BD01BE010130D10022204E30D3
:10053E00FC00EB30FD00FD0BA22AFC0BA22A4E3074
:10054E00FC00EB30FD00FD0BAA2AFC0BAA2A831639
:10055E008901013087008601831286018316880186
:10056E00831288018E018F01E530C3000630C4006E
:10057E000A217008C5000130C3000130C4005722A3
:10058E004E30FC00EB30FD00FD0BCB2AFC0BCB2AD2
:10059E00033090000B30FB002630FC005D30FD0078
:1005AE00FD0BD72AFC0BD72AFB0BD72A0000000025
:1005BE00023090000E08BD00BE010F08F100F001E0
:1005CE003D08F0073E080318013EF1070330F40022
:1005DE000030F50091207008013EC3000030031872
:1005EE00013E7107C4003830C5002D214E30FC008D
:1005FE00EB30FD00FD0B012BFC0B012B0230C30079
:10060E00C4013830C50057220130C3000730C40082
:10061E000A217008C5000230C3000730C4005722FB
:10062E000630FB001330FC00AD30FD00FD0B1D2B22
:10063E00FC0B1D2BFB0B1D2B000000009B2A080042
:10064E00013083120313D10022204A30C30006303A
:10065E00C4000A217008C5000130C3000130C40077
:10066E005722C930C3000630C4000A217008C500E5
:10067E000230C3000130C4005722C730C30005301A
:10068E00C4000A217008C5000330C3000130C40045
:10069E005722DB30C3000530C4000A217008C500A4
:1006AE000430C3000130C40057224E30FC00EB3042
:1006BE00FD00FD0B602BFC0B602BD7217008B800E2
:1006CE004E30FC00EB30FD00FD0B6B2BFC0B6B2B4F
:1006DE003808013A031DCA2C0130D10022206B309C
:1006EE00C3000630C4000A217008C5000130C300E3
:1006FE000130C40057224E30FC00EB30FD00FD0BE4
:10070E00862BFC0B862B97217008B9007108BA0056
:10071E007008C3007108C4003B30C5002D214E3057
:10072E00FC00EB30FD00FD0B9A2BFC0B9A2BAB3033
:10073E00C3000630C4000A217008C5000230C30091
:10074E000130C40057220230C3000F30C4003B30CA
:10075E00C50057224E30FC00EB30FD00FD0BB52BD3
:10076E00FC0BB52B3A08013C031DBF2B39087C3C12
:10077E000318DD2BED213830C3000630C4000A21EA
:10078E007008C5000330C3000130C40057220B307F
:10079E00FB002630FC005D30FD00FD0BD42BFC0B66
:1007AE00D42BFB0BD42B000000001E2C01303A0280
:1007BE00031DE32B2C3039020318012C22220230A8
:1007CE00C3000630C4000A217008C5000330C30000
:1007DE000130C40057220B30FB002630FC005D3088
:1007EE00FD00FD0BF82BFC0BF82BFB0BF82B000080
:1007FE0000001E2C0130D10022208B30C3000630A9
:10080E00C4000A217008C5000130C3000130C400C5
:10081E0057220230FB000430FC00BA30FD00FD0B05
:10082E00162CFC0B162CFB0B162C00001F2C8A2BE7
:10083E000130D10022209B30C3000630C4000A21B3
:10084E007008C5000130C3000130C40057224E307D
:10085E00FC00EB30FD00FD0B322CFC0B322C9721F3
:10086E007008B9007108BA007008C3007108C4009E
:10087E003B30C5002D214E30FC00EB30FD00FD0B52
:10088E00462CFC0B462CBA30C3000630C4000A219D
:10089E007008C5000230C3000130C4005722023078
:1008AE00C3000F30C4003B30C50057224E30FC0051
:1008BE00EB30FD00FD0B612CFC0B612C3A08013C6A
:1008CE00031D6B2C39087C3C0318892CED21143048
:1008DE00C3000630C4000A217008C5000330C300EF
:1008EE000130C40057220B30FB002630FC005D3077
:1008FE00FD00FD0B802CFC0B802CFB0B802C0000D4
:10090E000000C92C01303A02031D8F2C2C30390205
:10091E000318AD2C22222630C3000630C4000A2153
:10092E007008C5000330C3000130C40057220B30DD
:10093E00FB002630FC005D30FD00FD0BA42CFC0BF3
:10094E00A42CFB0BA42C00000000C92C0130D100FC
:10095E0022205B30C3000630C4000A217008C50097
:10096E000130C3000130C40057220230FB000430B6
:10097E00FC00BA30FD00FD0BC22CFC0BC22CFB0B95
:10098E00C22C0000D32C3808023A031DCF2CD32CD6
:0A099E003808033A031DD32C0800AB
:1009A80003218A110A128000840AA10A0319A20AE3
:0809B800F003031DD42C08001C
:1009C000013083120313D10022207B30C300063094
:1009D000C4000A217008C5000130C3000130C40002
:1009E0005722EF30C3000530C4000A217008C5004B
:1009F0000230C3000130C4005722D730C300063094
:100A0000C4000A217008C5000330C3000130C400CF
:100A10005722F330C3000630C4000A217008C50015
:100A20000430C3000130C40057224E30FC00EB30CC
:0E0A3000FD00FD0B192DFC0B192DD721080020
:100A3E0083160313881208120810881008118811E3
:100A4E0083128812081288110811881008100D20C0
:100A5E000D200D208814081488160A2088120D20E7
:100A6E0088160A2088120D2088160A2088120D205A
:100A7E00081088160A2088120D2088160A2088125F
:100A8E008810881588160A2088120D2088110814DF
:100A9E0088160A208812081088160A2088120D203F
:100AAE0088160A208812081488160A2088120D202B
:100ABE00081088160A20881288150815881408143C
:0C0ACE0088160A2088120D20231408004E
:0A0ADA00FF308316031385000800A7
:100AE40083160317880189014E30FC00EB30FD00AA
:100AF400FD0B7A2DFC0B7A2D1F254E30FC00EB30BC
:100B0400FD00FD0B832DFC0B832D6D254E30FC0069
:100B1400EB30FD00FD0B8C2DFC0B8C2D0C30831267
:100B2400D1002220E0244E30FC00EB30FD00FD0B10
:100B3400992DFC0B992DD7212008013A031DA42DD2
:100B44009722C52D2008023A031DAA2D2723C52D5F
:100B54002008033A031DC52D0130D1002220FB30AB
:100B6400C3000630C4000A217008C5000130C30068
:100B74000130C40057224E30FC00EB30FD00FD0B69
:0A0B8400C12DFC0BC12D952DC62DCF
:100B8E0032342934453423342C34423423342C3437
:100B9E00473423342C34443423342C34413423341A
:080BAE002C34453423340034DB
:100BB60033342934453462342C34423462342C3490
:100BC600473462342C34443462342C344134623435
:080BD6002C3445346234003474
:100BDE0031342934463472346534713475346534A5
:100BEE006E3463347934203444346534743465346B
:060BFE006334743400347E
:100C0400733474346534703470346534723420341D
:100C140061346E34743463346C346B3477346934D3
:040C240073340034F1
:100C280073347434653470347034653472342034F9
:100C380063346C346F3463346B34773469347334AD
:040C480065340034DB
:100C4C0073347434653470347034653472342034D5
:100C5C0061346E34743463346C346B34773469348B
:040C6C0073340034A9
:100C700073347434653470347034653472342034B1
:100C800063346C346F3463346B3477346934733465
:040C90006534003493
:100C940020342034543475346E346E3469346E34F4
:100CA400673420344D346534743468346F346434B8
:020CB40000340A
:100CB600423432346E3464342034733475346334DD
:100CC6006334653473347334663475346C34003489
:100CD600543475346E346E3469346E34673420346B
:100CE60045343134733474342E342E342E34003477
:100CF60020342034533445344C344534433454344E
:100D060020344D344534543448344F34443400345C
:100D16004534313473347434203473347534633465
:100D26006334653473347334663475346C34003428
:100D3600543475346E346E3469346E34673420340A
:100D4600423432346E3464342E342E342E3400342D
:100D56004634723465347134753465346E346334B4
:0E0D66007934283448347A3429343A3400344D
:100D74004634723465347134753465346E34633496
:0E0D84007934283448347A3429343A3400342F
:100D92003134293445342C3442342C3447342C3405
:0C0DA20044342C3441342C3445340034EB
:100DAE0032342934473475346934743461347234CE
:0C0DBE002034543475346E346534003435
:100DCA004634523445345134553445344E34433420
:0C0DDA0059342034493453343A34003486
:100DE600333429344F3474346834653472340034FF
:0C0DF6004F3474346834653472340034B7
:060E020048347A3400348C
:04400E00F42F000784
:00000001FF
